:100000000C9435000C945D000C945D000C945D0024
:100010000C945D000C945D000C945D000C945D00EC
:100020000C945D000C945D000C945D000C945D00DC
:100030000C945D000C945D000C945D000C945D00CC
:100040000C947C030C945D000C944A030C942403E0
:100050000C945D000C945D000C945D000C945D00AC
:100060000C945D000C945D00E20411241FBECFEFE0
:10007000D8E0DEBFCDBF11E0A0E0B1E0EAEEFEE0E7
:1000800002C005900D92AC36B107D9F722E0ACE67C
:10009000B1E001C01D92A631B207E1F710E0C5E35F
:1000A000D0E004C02197FE010E946D07C433D10740
:1000B000C9F70E94C6030C9473070C940000AF921A
:1000C000BF92CF92DF92EF92FF920F931F93CF9345
:1000D000DF936C017B018B01040F151FEB015E01A7
:1000E000AE18BF08C017D10759F06991D601ED913C
:1000F000FC910190F081E02DC6010995892B79F7DB
:10010000C501DF91CF911F910F91FF90EF90DF908C
:10011000CF90BF90AF900895FC01538D448D252F53
:1001200030E0842F90E0821B930B541710F0CF9691
:10013000089501970895FC01918D828D981761F0C3
:10014000A28DAE0FBF2FB11D5D968C91928D9F5FDA
:100150009F73928F90E008958FEF9FEF0895FC01B9
:10016000918D828D981731F0828DE80FF11D858D6C
:1001700090E008958FEF9FEF0895FC01918D228DFF
:10018000892F90E0805C9F4F821B91098F73992784
:10019000089589E791E00E94BD0021E0892B09F4D0
:1001A00020E0822F089580E090E0892B29F00E94C2
:1001B000C90081110C9400000895FC01A48DA80FC2
:1001C000B92FB11DA35ABF4F2C91848D90E0019699
:1001D0008F739927848FA689B7892C93A089B189B9
:1001E0008C91837080648C93938D848D981306C05A
:1001F0000288F389E02D80818F7D80830895EF92BE
:10020000FF920F931F93CF93DF93EC0181E0888FD0
:100210009B8D8C8D98131AC0E889F989808185FFA0
:1002200015C09FB7F894EE89FF896083E889F98942
:1002300080818370806480839FBF81E090E0DF9144
:10024000CF911F910F91FF90EF900895F62E0B8D97
:1002500010E00F5F1F4F0F731127E02E8C8D8E1152
:100260000CC00FB607FCFACFE889F989808185FFB9
:10027000F5CFCE010E94DD00F1CFEB8DEC0FFD2F0D
:10028000F11DE35AFF4FF0829FB7F8940B8FEA8974
:10029000FB8980818062CFCFCF93DF93EC01888D83
:1002A0008823B9F0AA89BB89E889F9898C9185FDF1
:1002B00003C0808186FD0DC00FB607FCF7CF8C917F
:1002C00085FFF2CF808185FFEDCFCE010E94DD005A
:1002D000E9CFDF91CF910895806480937C00809175
:1002E0007A00806480937A0080917A0086FDFCCF4A
:1002F000809178009091790008953FB7F8948091AB
:10030000710190917201A0917301B091740126B5B1
:10031000A89B05C02F3F19F00196A11DB11D3FBF3D
:10032000BA2FA92F982F8827BC01CD01620F711D0C
:10033000811D911D42E0660F771F881F991F4A9506
:10034000D1F708958F929F92AF92BF92CF92DF9292
:10035000EF92FF924B015C010E947D016B017C01D9
:100360000E947D016C197D098E099F09683E7340CA
:1003700081059105A8F321E0821A9108A108B1082E
:1003800088EEC80E83E0D81EE11CF11C8114910494
:10039000A104B10429F7FF90EF90DF90CF90BF90B8
:1003A000AF909F908F90089520E037E446E859E49D
:1003B000609175017091760180917701909178013B
:1003C0000E94D90620E030E543EC57E40E94810505
:1003D0000895FC0101900020E9F73197AF01481B17
:1003E000590BBC0189E791E00C945F008F929F92BA
:1003F000AF92BF920F931F93CF93DF93CDB7DEB72A
:10040000A1970FB6F894DEBF0FBECDBF19A2423040
:1004100008F44AE08E010F5D1F4F842E912CB12C01
:10042000A12CA50194010E944B07E62FB901CA0136
:10043000EA30F4F4E05DD801EE938D01232B242BF8
:10044000252B79F790E080E0109719F0CD010E94FC
:10045000E901A1960FB6F894DEBF0FBECDBFDF91C4
:10046000CF911F910F91BF90AF909F908F90089563
:10047000E95CE1CFCF93DF930E94E901EC0182E1D7
:1004800091E00E94E9018C0F9D1FDF91CF910895AB
:100490004F925F926F927F928F929F92AF92BF9294
:1004A000CF92DF92EF92FF920F931F93CF936B0146
:1004B0007C01742EAC019B010E944607882399F0B1
:1004C00085E191E0CF911F910F91FF90EF90DF9028
:1004D000CF90BF90AF909F908F907F906F905F90E4
:1004E0004F900C94E90146015701E894B7F82FEFBB
:1004F0003FEF4FE75FE7C501B4010E944607811156
:100500000DC02FEF3FEF4FE75FE7C501B4010E9439
:100510007C0518161CF489E191E0D4CF2FEF3FEF52
:100520004FE75FE4C701B6010E94D40618161CF419
:100530008DE191E0C7CF2FEF3FEF4FE75FECC701B1
:10054000B6010E947C0587FDF3CF20E030E0A901D1
:10055000C701B6010E947C0510E000E087FF0AC0D9
:100560006DE289E791E00E94FF008C01F7FAF094B8
:10057000F7F8F094C0E060E070E080E09FE37C1664
:1005800041F020E030E040E251E40E948105CF5F7D
:10059000F6CFA70196010E9410052B013C010E9495
:1005A000F3054B015C014AE00E94F6017C01E00E7C
:1005B000F11ECC23C1F1C501B4010E9422069B01AA
:1005C000AC01C301B2010E940F054B015C016EE258
:1005D00089E791E00E94FF00E80EF91EC15018F172
:1005E00020E030E040E251E4C501B4010E94D906A8
:1005F0002B013C010E94F3054B01B12CA12C4AE0D8
:10060000C501B4010E94F601E80EF91EC501B4014E
:100610000E9422069B01AC01C301B2010E940F059A
:100620004B015C01DBCFC701CF911F910F91FF9070
:10063000EF90DF90CF90BF90AF909F908F907F9082
:100640006F905F904F9008951F920F920FB60F9288
:1006500011242F933F934F935F936F937F938F93C7
:100660009F93AF93BF93EF93FF9389E791E00E942D
:10067000DD00FF91EF91BF91AF919F918F917F919D
:100680006F915F914F913F912F910F900FBE0F90FF
:100690001F9018951F920F920FB60F9211242F934F
:1006A0008F939F93EF93FF93E0918901F0918A01DB
:1006B0008081E0918F01F091900182FD1BC09081BB
:1006C000809192018F5F8F7320919301821741F087
:1006D000E0919201F0E0E758FE4F958F80939201F0
:1006E000FF91EF919F918F912F910F900FBE0F90DF
:1006F0001F9018958081F4CF1F920F920FB60F9222
:1007000011242F933F938F939F93AF93BF93809127
:100710006D0190916E01A0916F01B09170013091C7
:100720006C0123E0230F2D3758F50196A11DB11D53
:1007300020936C0180936D0190936E01A0936F01E3
:10074000B09370018091710190917201A091730139
:10075000B09174010196A11DB11D80937101909318
:100760007201A0937301B0937401BF91AF919F91F7
:100770008F913F912F910F900FBE0F901F90189562
:1007800026E8230F0296A11DB11DD2CF789484B51F
:10079000826084BD84B5816084BD85B5826085BD7D
:1007A00085B5816085BD80916E00816080936E000B
:1007B00010928100809181008260809381008091FD
:1007C00081008160809381008091800081608093AE
:1007D00080008091B10084608093B1008091B0006E
:1007E00081608093B00080917A00846080937A0069
:1007F00080917A00826080937A0080917A00816093
:1008000080937A0080917A00806880937A001092B9
:10081000C100E0918901F0918A0182E08083E0913A
:100820008501F09186011082E0918701F0918801A5
:100830008FEC808310929101E0918D01F0918E01F7
:1008400086E08083E0918B01F0918C018081806152
:100850008083E0918B01F0918C018081886080839E
:10086000E0918B01F0918C01808180688083E09120
:100870008B01F0918C0180818F7D80836CE271E02F
:1008800080E090E00E94A20181E291E00E943A02A1
:1008900088E391E00E94E90142E060E070E08CE5CD
:1008A00092E40E94480285E491E00E943A026CE2E0
:1008B00071E080E090E00E94A20180E591E00E945A
:1008C0003A0268EE73E080E090E00E94A201C0E08E
:1008D000D0E087E491E00E943A0268EE73E080E0A5
:1008E00090E00E94A20184E591E00E94E90180E08D
:1008F0000E946C01BC01990F880B990B0E94240681
:1009000020E030E040EA50E40E94D90620E030E0E8
:1009100040E85AE30E94D90660937501709376010E
:1009200080937701909378010E94D40142E00E9465
:10093000480285E491E00E943A0280E691E00E943C
:10094000E90181E00E946C01BC01990F880B990BB1
:100950000E94240620E030E040EA50E40E94D906DC
:1009600020E030E040E85AE30E94D9066093750128
:100970007093760180937701909378010E94D4015F
:1009800042E00E94480285E491E00E943A0268EE4B
:1009900073E080E090E00E94A20180E591E00E9477
:1009A0003A0268EE73E080E090E00E94A201209796
:1009B00009F48FCF0E94C900882309F48ACF0E94CE
:1009C000000087CFE9E7F1E01382128288EE93E01E
:1009D000A0E0B0E084839583A683B78384E091E0B0
:1009E0009183808385EC90E09587848784EC90E008
:1009F0009787868780EC90E0918B808B81EC90E0EC
:100A0000938B828B82EC90E0958B848B86EC90E0CC
:100A1000978B868B118E128E138E148E08955058DC
:100A2000BB27AA270E9427050C949A060E948C06D1
:100A300038F00E94930620F039F49F3F19F426F411
:100A40000C9489060EF4E095E7FB0C948306E92FDD
:100A50000E94AB0658F3BA1762077307840795071D
:100A600020F079F4A6F50C94CD060EF4E0950B2E4B
:100A7000BA2FA02D0B01B90190010C01CA01A001F0
:100A80001124FF27591B99F0593F50F4503E68F14B
:100A90001A16F040A22F232F342F4427585FF3CF8C
:100AA000469537952795A795F0405395C9F77EF45D
:100AB0001F16BA0B620B730B840BBAF09150A1F0A6
:100AC000FF0FBB1F661F771F881FC2F70EC0BA0F2C
:100AD000621F731F841F48F4879577956795B795B4
:100AE000F7959E3F08F0B0CF9395880F08F09927AF
:100AF000EE0F9795879508950E945F0608F481E0B0
:100B000008950E9495050C949A060E94930658F049
:100B10000E948C0640F029F45F3F29F00C94830674
:100B200051110C94CE060C9489060E94AB0668F312
:100B30009923B1F3552391F3951B550BBB27AA2796
:100B400062177307840738F09F5F5F4F220F331FD0
:100B5000441FAA1FA9F335D00E2E3AF0E0E832D098
:100B600091505040E695001CCAF72BD0FE2F29D09B
:100B7000660F771F881FBB1F261737074807AB076D
:100B8000B0E809F0BB0B802DBF01FF2793585F4FE2
:100B90003AF09E3F510578F00C9483060C94CE06F3
:100BA0005F3FE4F3983ED4F3869577956795B795C4
:100BB000F7959F5FC9F7880F911D9695879597F9CF
:100BC0000895E1E0660F771F881FBB1F6217730748
:100BD0008407BA0720F0621B730B840BBA0BEE1F5D
:100BE00088F7E09508950E94B30688F09F5798F023
:100BF000B92F9927B751B0F0E1F0660F771F881F22
:100C0000991F1AF0BA95C9F714C0B13091F00E943B
:100C1000CD06B1E008950C94CD06672F782F882774
:100C2000B85F39F0B93FCCF3869577956795B39562
:100C3000D9F73EF490958095709561957F4F8F4FD1
:100C40009F4F0895E89409C097FB3EF490958095D6
:100C5000709561957F4F8F4F9F4F9923A9F0F92F82
:100C600096E9BB279395F695879577956795B79500
:100C7000F111F8CFFAF4BB0F11F460FF1BC06F5FE6
:100C80007F4F8F4F9F4F16C0882311F096E911C0F8
:100C9000772321F09EE8872F762F05C0662371F019
:100CA00096E8862F70E060E02AF09A95660F771F2D
:100CB000881FDAF7880F9695879597F90895990F09
:100CC0000008550FAA0BE0E8FEEF16161706E80716
:100CD000F907C0F012161306E407F50798F0621B37
:100CE000730B840B950B39F40A2661F0232B242B0C
:100CF000252B21F408950A2609F4A140A6958FEF2B
:100D0000811D811D089597F99F6780E870E060E07C
:100D100008959FEF80EC089500240A941616170694
:100D200018060906089500240A94121613061406DC
:100D300005060895092E0394000C11F4882352F03F
:100D4000BB0F40F4BF2B11F460FF04C06F5F7F4FF7
:100D50008F4F9F4F089557FD9058440F551F59F0DE
:100D60005F3F71F04795880F97FB991F61F09F3F98
:100D700079F087950895121613061406551FF2CFC1
:100D80004695F1DF08C0161617061806991FF1CF11
:100D900086957105610508940895E894BB27662738
:100DA0007727CB0197F908950E945F0608F48FEF2B
:100DB00008950E94EC060C949A060E948C0638F066
:100DC0000E94930620F0952311F00C9483060C9456
:100DD000890611240C94CE060E94AB0670F3959FF1
:100DE000C1F3950F50E0551F629FF001729FBB2722
:100DF000F00DB11D639FAA27F00DB11DAA1F649FBE
:100E00006627B00DA11D661F829F2227B00DA11D70
:100E1000621F739FB00DA11D621F839FA00D611DF6
:100E2000221F749F3327A00D611D231F849F600D17
:100E3000211D822F762F6A2F11249F5750409AF040
:100E4000F1F088234AF0EE0FFF1FBB1F661F771FCC
:100E5000881F91505040A9F79E3F510580F00C9497
:100E600083060C94CE065F3FE4F3983ED4F3869558
:100E700077956795B795F795E7959F5FC1F7FE2B37
:100E8000880F911D9695879597F908950E945F06A2
:100E9000880B990B0895A1E21A2EAA1BBB1BFD011A
:100EA0000DC0AA1FBB1FEE1FFF1FA217B307E40749
:100EB000F50720F0A21BB30BE40BF50B661F771FA1
:100EC000881F991F1A9469F7609570958095909581
:100ED0009B01AC01BD01CF010895EE0FFF1F0590EE
:0A0EE000F491E02D0994F894FFCF7F
:100EEA0000000000FF005F008C004C01BD009B0069
:100EFA00AF000D0A006E616E00696E66006F76665D
:100F0A0000566F6C74696D6574726F202D2056657A
:100F1A007273696F6E20310052616E676F3A2030CA
:100F2A0056202D200056005465737465616E646FF7
:100F3A002E2E2E004261746572696120313A2000BA
:0C0F4A004261746572696120323A200037
:00000001FF
